:100000000C942A000C9459000C9434000C94340085
:100010000C9434000C9434000C9434000C94340090
:100020000C9434000C9434000C9434000C94340080
:100030000C9434000C9434000C9434000C94340070
:100040000C9434000C9434000C9434000C94340060
:100050000C94340011241FBECFE5D8E0DEBFCDBF25
:100060000E9492030C94A3030C940000DF93CF939F
:10007000CDB7DEB7AFE5B0E0EFE5F0E080818068B6
:100080008C93A5E5B0E0E5E5F0E0808182608C939B
:10009000A5E5B0E0E5E5F0E080818E7F8C93ABE5EF
:1000A000B0E0EBE5F0E0808180648C93CF91DF914C
:1000B00008951F920F920FB60F9211242F933F9322
:1000C0004F935F936F937F938F939F93AF93BF9360
:1000D000EF93FF93DF93CF93CDB7DEB780E060E07F
:1000E00041E00E947401CF91DF91FF91EF91BF91A8
:1000F000AF919F918F917F916F915F914F913F91C0
:100100002F910F900FBE0F901F901895DF93CF93F4
:1001100000D000D00F92CDB7DEB789836A834B83BE
:100120008981282F30E03D832C838C819D81813013
:10013000910509F446C02C813D81223031052CF413
:100140008C819D81009771F0C7C02C813D81223048
:10015000310509F465C08C819D818330910509F4D6
:100160008EC0BAC08B818823A1F4AAE3B0E0EAE391
:10017000F0E08081482F8A81282F30E081E090E0F4
:10018000022E02C0880F991F0A94E2F780958423FB
:100190008C938B81813009F09FC0AAE3B0E0EAE341
:1001A000F0E08081482F8A81282F30E081E090E0C4
:1001B000022E02C0880F991F0A94E2F7842B8C93B9
:1001C0008BC08B818823A1F4A7E3B0E0E7E3F0E0E4
:1001D0008081482F8A81282F30E081E090E0022E34
:1001E00002C0880F991F0A94E2F7809584238C93AC
:1001F0008B81813009F070C0A7E3B0E0E7E3F0E065
:100200008081482F8A81282F30E081E090E0022E03
:1002100002C0880F991F0A94E2F7842B8C935CC06C
:100220008B818823A1F4A4E3B0E0E4E3F0E08081D3
:10023000482F8A81282F30E081E090E0022E02C012
:10024000880F991F0A94E2F7809584238C938B8101
:10025000813009F041C0A4E3B0E0E4E3F0E0808144
:10026000482F8A81282F30E081E090E0022E02C0E2
:10027000880F991F0A94E2F7842B8C932DC08B81F1
:100280008823A1F4A1E3B0E0E1E3F0E08081482F0E
:100290008A81282F30E081E090E0022E02C0880F92
:1002A000991F0A94E2F7809584238C938B81813087
:1002B00099F4A1E3B0E0E1E3F0E08081482F8A8186
:1002C000282F30E081E090E0022E02C0880F991FB5
:1002D0000A94E2F7842B8C930F900F900F900F905D
:1002E0000F90CF91DF910895DF93CF9300D000D08E
:1002F0000F92CDB7DEB789836A834B838981282F1C
:1003000030E03D832C838C819D818130910509F4FF
:1003100046C02C813D81223031052CF48C819D8199
:10032000009771F0C7C02C813D812230310509F45E
:1003300065C08C819D818330910509F48EC0BAC05F
:100340008B818823A1F4ABE3B0E0EBE3F0E08081A4
:10035000482F8A81282F30E081E090E0022E02C0F1
:10036000880F991F0A94E2F7809584238C938B81E0
:10037000813009F09FC0ABE3B0E0EBE3F0E08081B7
:10038000482F8A81282F30E081E090E0022E02C0C1
:10039000880F991F0A94E2F7842B8C938BC08B8172
:1003A0008823A1F4A8E3B0E0E8E3F0E08081482FDF
:1003B0008A81282F30E081E090E0022E02C0880F71
:1003C000991F0A94E2F7809584238C938B81813066
:1003D00009F070C0A8E3B0E0E8E3F0E08081482FC6
:1003E0008A81282F30E081E090E0022E02C0880F41
:1003F000991F0A94E2F7842B8C935CC08B8188232D
:10040000A1F4A5E3B0E0E5E3F0E08081482F8A8124
:10041000282F30E081E090E0022E02C0880F991F63
:100420000A94E2F7809584238C938B81813009F0C4
:1004300041C0A5E3B0E0E5E3F0E08081482F8A8188
:10044000282F30E081E090E0022E02C0880F991F33
:100450000A94E2F7842B8C932DC08B818823A1F41E
:10046000A2E3B0E0E2E3F0E08081482F8A81282F08
:1004700030E081E090E0022E02C0880F991F0A94BC
:10048000E2F7809584238C938B81813099F4A2E3E9
:10049000B0E0E2E3F0E08081482F8A81282F30E04D
:1004A00081E090E0022E02C0880F991F0A94E2F7C3
:1004B000842B8C930F900F900F900F900F90CF91F3
:1004C000DF910895DF93CF9300D000D00F92CDB786
:1004D000DEB789836A838981282F30E03D832C83AE
:1004E0004C815D8141305105B1F18C819D8182301B
:1004F000910534F42C813D812115310571F085C0C1
:100500004C815D814230510509F443C08C819D814D
:100510008330910509F45BC078C0E9E3F0E08081A5
:10052000482F50E08A81282F30E081E090E002C01F
:10053000880F991F2A95E2F79A01282339238A8187
:10054000882F90E0A90102C0559547958A95E2F75A
:10055000CA018B835CC0E6E3F0E08081482F50E065
:100560008A81282F30E081E090E002C0880F991F37
:100570002A95E2F79A01282339238A81882F90E06F
:10058000A90102C0559547958A95E2F7CA018B8368
:100590003EC0E3E3F0E08081482F50E08A81282FBD
:1005A00030E081E090E002C0880F991F2A95E2F7C1
:1005B0009A01282339238A81882F90E0A90102C05B
:1005C000559547958A95E2F7CA018B8320C0E0E3F1
:1005D000F0E08081482F50E08A81282F30E081E0D0
:1005E00090E002C0880F991F2A95E2F79A0128230C
:1005F00039238A81882F90E0A90102C0559547953B
:100600008A95E2F7CA018B8302C052E05B838B813B
:100610000F900F900F900F900F90CF91DF91089552
:10062000DF93CF9300D000D0CDB7DEB789836A8344
:100630008981282F30E03C832B838B819C81813002
:100640009105D1F02B813C81223031052CF48B8136
:100650009C81009761F01EC02B813C8122303105C6
:1006600081F08B819C818330910581F013C0EAE396
:10067000F0E08A8180830EC0E7E3F0E08A81808326
:1006800009C0E4E3F0E08A81808304C0E1E3F0E0A4
:100690008A8180830F900F900F900F90CF91DF9100
:1006A0000895DF93CF9300D000D0CDB7DEB7898314
:1006B0006A838981282F30E03C832B838B819C8146
:1006C00081309105D1F02B813C81223031052CF411
:1006D0008B819C81009761F01EC02B813C81223070
:1006E000310581F08B819C818330910581F013C0AD
:1006F000EBE3F0E08A8180830EC0E8E3F0E08A81DA
:10070000808309C0E5E3F0E08A81808304C0E2E3EE
:10071000F0E08A8180830F900F900F900F90CF911F
:10072000DF910895DF93CF93CDB7DEB780E060E02F
:1007300041E00E94860083E062E041E00E94740193
:0A0740000E943600FFCFF894FFCFAF
:00000001FF
