:100000000C942A000C9447000C9447000C94470071
:100010000C9447000C9447000C9447000C94470044
:100020000C9447000C9447000C9447000C94470034
:100030000C9447000C9447000C9447000C94470024
:100040000C9447000C9447000C9447000C94470014
:100050000C94470011241FBECFE5D8E0DEBFCDBF12
:1000600011E0A0E6B0E0E4E7F1E102C005900D92F6
:10007000AC36B107D9F711E0ACE6B1E001C01D9292
:10008000A237B107E1F70E9474070C94B8080C94EA
:100090000000A0E2B0E0EFE4F0E00C948108698396
:1000A0007A838B839C832D833E834F835887CE0135
:1000B0000196BE01675F7F4F0E944003CE01059607
:1000C000BE016F5E7F4F0E9440039985923088F099
:1000D00089898230C8F0943019F4823051F404C018
:1000E000843029F4923081F480E690E0C6C09230EA
:1000F00049F420E09A858A89981321E02A87CE0165
:100100000996BBC0823049F420E09A858A89981309
:1001100021E02A8BCE014196B0C02D843E844F84CD
:1001200058886D887E888F88988CEE24FF248701FC
:10013000AA24BB24650140E050E060E070E0E0E00C
:10014000F0E0C10181709070892BE9F0E60CF71C9A
:10015000081D191D9A01AB012A0D3B1D4C1D5D1D8B
:1001600080E090E0A0E0B0E0E614F704080519058F
:1001700020F481E090E0A0E0B0E0BA01A901480FCE
:10018000591F6A1F7B1FAA0CBB1CCC1CDD1C97FED1
:1001900008C081E090E0A0E0B0E0A82AB92ACA2A0D
:1001A000DB2A3196E032F10549F0660C771C881C99
:1001B000991C5694479437942794C3CFFA85EA89BB
:1001C0002B893C898B859C85280F391F2E5F3F4FDB
:1001D00017C0CA0181709070892B61F01695079540
:1001E000F794E79480E090E0A0E0B0E8E82AF92AEC
:1001F0000A2B1B2B76956795579547952F5F3F4F99
:1002000077FDE7CF0CC0440F551F661F771F17FD02
:100210004160EE0CFF1C001F111F21503040403088
:1002200090E0590790E0690790E4790760F32B8F1D
:100230003C8FDB01CA018F779070A070B070803462
:100240009105A105B10561F447FD0AC0E114F1046F
:100250000105110529F0405C5F4F6F4F7F4F4078DB
:100260001A8EFE1711F081E08A8F4D8F5E8F6F8F8F
:1002700078A383E0898FCE0149960E946B02A096F5
:10028000E2E10C949D08A8E1B0E0E9E4F1E00C940F
:100290008D0869837A838B839C832D833E834F8370
:1002A000588789E0E82EF12CEC0EFD1ECE01019658
:1002B000B7010E9440038E010F5E1F4FCE010596CD
:1002C000B8010E9440038985823040F089898230DC
:1002D00028F0C701B8010E94B80301C08FEF6896EB
:1002E000E6E00C94A908A8E1B0E0E9E7F1E00C949D
:1002F0008D0869837A838B839C832D833E834F8310
:10030000588789E0E82EF12CEC0EFD1ECE010196F7
:10031000B7010E9440038E010F5E1F4FCE0105966C
:10032000B8010E9440038985823040F0898982307B
:1003300028F0C701B8010E94B80301C081E06896A7
:10034000E6E00C94A908A8E0B0E0E9EAF1E00C943A
:1003500089087B018C01611571058105910519F4EE
:1003600082E0898360C083E089838EE1C82ED12C2E
:10037000DC82CB82ED82FE820F831887C801B70131
:100380000E941C02FC013197F7FF3BC02227332754
:100390002E1B3F0B57016801022E04C0D694C79450
:1003A000B794A7940A94D2F740E050E060E070E080
:1003B00081E090E0A0E0B0E004C0880F991FAA1F80
:1003C000BB1F2A95D2F70197A109B1098E219F2160
:1003D000A023B1230097A105B10521F041E050E031
:1003E00060E070E04A295B296C297D294D835E839A
:1003F0006F8378878EE190E08E1B9F0B9C838B83AD
:1004000012C0309781F00E2E04C0EE0CFF1C001FAE
:10041000111F0A94D2F7ED82FE820F831887CE1A3D
:10042000DF0ADC82CB821A82CE0101960E946B0227
:100430002896EAE00C94A508EF92FF920F931F9381
:100440007B018C0180E0E81680E0F80681E0080777
:1004500080E0180788F48FEFE816F1040105110514
:1004600031F028F088E090E0A0E0B0E017C080E034
:1004700090E0A0E0B0E012C080E0E81680E0F8066E
:1004800080E0080781E0180728F088E190E0A0E00C
:10049000B0E004C080E190E0A0E0B0E020E230E015
:1004A00040E050E0281B390B4A0B5B0B04C016954B
:1004B0000795F794E7948A95D2F7F701E859FF4F2B
:1004C0008081281B310941095109C9011F910F91F0
:1004D000FF90EF900895DF92EF92FF920F931F939A
:1004E000FC01E480F58006811781D1808081823013
:1004F00048F480E090E0A0E1B0E0E82AF92A0A2B75
:100500001B2BA5C0843009F49FC0823021F4EE2457
:10051000FF24870105C0E114F1040105110519F458
:10052000E0E0F0E096C0628173819FEF6238790766
:100530000CF05BC022E83FEF261B370B2A31310558
:100540002CF020E030E040E050E02AC0B801A701E4
:10055000022E04C076956795579547950A94D2F771
:1005600081E090E0A0E0B0E004C0880F991FAA1FCE
:10057000BB1F2A95D2F70197A109B1098E219F21AE
:10058000A023B1230097A105B10521F081E090E0FF
:10059000A0E0B0E09A01AB01282B392B4A2B5B2B52
:1005A000DA01C9018F779070A070B0708034910526
:1005B000A105B10539F427FF09C0205C3F4F4F4F1B
:1005C0005F4F04C0215C3F4F4F4F5F4FE0E0F0E0D2
:1005D0002030A0E03A07A0E04A07A0E45A0710F054
:1005E000E1E0F0E079018A0127C06038710564F527
:1005F000FB01E158FF4FD801C7018F779070A070C1
:10060000B07080349105A105B10539F4E7FE0DC045
:1006100080E490E0A0E0B0E004C08FE390E0A0E0D0
:10062000B0E0E80EF91E0A1F1B1F17FF05C0169544
:100630000795F794E794319687E016950795F79418
:10064000E7948A95D1F705C0EE24FF248701EFEFE8
:10065000F0E06E2F679566276795902F9F77D79468
:10066000DD24D7948E2F8695492F462B582F5D2950
:10067000B701CA011F910F91FF90EF90DF9008958D
:10068000FC01DB01408151812281622F6F7770E094
:10069000221F2227221F9381892F880F822B282F28
:1006A00030E0991F9927991F11969C931197211556
:1006B0003105A9F5411551056105710511F482E077
:1006C00037C082E89FEF13969C938E9312979A01FE
:1006D000AB0167E0220F331F441F551F6A95D1F706
:1006E00083E08C930DC0220F331F441F551F1296B9
:1006F0008D919C911397019713969C938E931297CB
:10070000203080E0380780E0480780E4580758F33D
:1007100014962D933D934D935C93179708952F3F17
:10072000310579F4411551056105710519F484E02D
:100730008C93089564FF03C081E08C9312C01C92D7
:1007400010C02F57304013963C932E93129783E09E
:100750008C9387E0440F551F661F771F8A95D1F74A
:10076000706414964D935D936D937C9317970895E1
:100770001F93DC01FB019C91923008F447C08081FB
:10078000823008F443C0943051F411961C918430A7
:1007900099F58181682F70E0611B71093FC0843039
:1007A00021F0923031F48230B9F18181882389F1CE
:1007B0002DC011961C9111978230F1F0818118178C
:1007C000D9F412962D913C911397828193818217CF
:1007D000930794F028173907BCF014968D919D91DA
:1007E0000D90BC91A02D2481358146815781281719
:1007F00039074A075B0718F4112341F00AC0821732
:100800009307A407B50740F4112319F061E070E0E5
:1008100005C06FEF7FEF02C060E070E0CB011F9179
:100820000895DF93CF93CDB7DEB7A7E2B0E0E7E25C
:10083000F0E0808180648C93A6E2B0E0E6E2F0E034
:10084000808180688C93A6E2B0E0E6E2F0E08081EF
:1008500081608C93A6E2B0E0E6E2F0E08081846003
:100860008C93CF91DF910895DF93CF930F92CDB703
:10087000DEB78983A7E2B0E0E7E2F0E08081807E26
:100880008C93A7E2B0E0E7E2F0E090818981892BC8
:100890008C93A6E2B0E0E6E2F0E0808180648C9385
:1008A000E6E2F0E08081882F90E080719070009700
:1008B000B9F3A6E2B0E0E6E2F0E0808180618C93DB
:1008C000E4E2F0E0808191810F90CF91DF91089573
:1008D000DF93CF9300D000D00F92CDB7DEB78983DE
:1008E0006A834B838981282F30E03D832C838C8160
:1008F0009D818130910509F446C02C813D812230D3
:1009000031052CF48C819D81009771F0C7C02C813A
:100910003D812230310509F465C08C819D81833091
:10092000910509F48EC0BAC08B818823A1F4AAE393
:10093000B0E0EAE3F0E08081482F8A81282F30E0A0
:1009400081E090E0022E02C0880F991F0A94E2F71E
:10095000809584238C938B81813009F09FC0AAE31A
:10096000B0E0EAE3F0E08081482F8A81282F30E070
:1009700081E090E0022E02C0880F991F0A94E2F7EE
:10098000842B8C938BC08B818823A1F4A7E3B0E0E8
:10099000E7E3F0E08081482F8A81282F30E081E072
:1009A00090E0022E02C0880F991F0A94E2F780950A
:1009B00084238C938B81813009F070C0A7E3B0E071
:1009C000E7E3F0E08081482F8A81282F30E081E042
:1009D00090E0022E02C0880F991F0A94E2F7842B40
:1009E0008C935CC08B818823A1F4A4E3B0E0E4E3A2
:1009F000F0E08081482F8A81282F30E081E090E06C
:100A0000022E02C0880F991F0A94E2F78095842372
:100A10008C938B81813009F041C0A4E3B0E0E4E322
:100A2000F0E08081482F8A81282F30E081E090E03B
:100A3000022E02C0880F991F0A94E2F7842B8C9330
:100A40002DC08B818823A1F4A1E3B0E0E1E3F0E0C5
:100A50008081482F8A81282F30E081E090E0022EAB
:100A600002C0880F991F0A94E2F7809584238C9323
:100A70008B81813099F4A1E3B0E0E1E3F0E0808183
:100A8000482F8A81282F30E081E090E0022E02C0BA
:100A9000880F991F0A94E2F7842B8C930F900F9084
:100AA0000F900F900F90CF91DF910895DF93CF9328
:100AB00000D000D00F92CDB7DEB789836A834B8315
:100AC0008981282F30E03D832C838C819D8181306A
:100AD000910509F446C02C813D81223031052CF46A
:100AE0008C819D81009771F0C7C02C813D8122309F
:100AF000310509F465C08C819D818330910509F42D
:100B00008EC0BAC08B818823A1F4ABE3B0E0EBE3E5
:100B1000F0E08081482F8A81282F30E081E090E04A
:100B2000022E02C0880F991F0A94E2F78095842351
:100B30008C938B81813009F09FC0ABE3B0E0EBE395
:100B4000F0E08081482F8A81282F30E081E090E01A
:100B5000022E02C0880F991F0A94E2F7842B8C930F
:100B60008BC08B818823A1F4A8E3B0E0E8E3F0E038
:100B70008081482F8A81282F30E081E090E0022E8A
:100B800002C0880F991F0A94E2F7809584238C9302
:100B90008B81813009F070C0A8E3B0E0E8E3F0E0B9
:100BA0008081482F8A81282F30E081E090E0022E5A
:100BB00002C0880F991F0A94E2F7842B8C935CC0C3
:100BC0008B818823A1F4A5E3B0E0E5E3F0E0808128
:100BD000482F8A81282F30E081E090E0022E02C069
:100BE000880F991F0A94E2F7809584238C938B8158
:100BF000813009F041C0A5E3B0E0E5E3F0E0808199
:100C0000482F8A81282F30E081E090E0022E02C038
:100C1000880F991F0A94E2F7842B8C932DC08B8147
:100C20008823A1F4A2E3B0E0E2E3F0E08081482F62
:100C30008A81282F30E081E090E0022E02C0880FE8
:100C4000991F0A94E2F7809584238C938B818130DD
:100C500099F4A2E3B0E0E2E3F0E08081482F8A81DA
:100C6000282F30E081E090E0022E02C0880F991F0B
:100C70000A94E2F7842B8C930F900F900F900F90B3
:100C80000F90CF91DF910895DF93CF9300D000D0E4
:100C90000F92CDB7DEB789836A838981282F30E030
:100CA0003D832C834C815D8141305105B1F18C81B4
:100CB0009D818230910534F42C813D8121153105CF
:100CC00071F085C04C815D814230510509F443C00B
:100CD0008C819D818330910509F45BC078C0E9E384
:100CE000F0E08081482F50E08A81282F30E081E0B9
:100CF00090E002C0880F991F2A95E2F79A012823F5
:100D000039238A81882F90E0A90102C05595479523
:100D10008A95E2F7CA018B835CC0E6E3F0E080814C
:100D2000482F50E08A81282F30E081E090E002C017
:100D3000880F991F2A95E2F79A01282339238A817F
:100D4000882F90E0A90102C0559547958A95E2F752
:100D5000CA018B833EC0E3E3F0E08081482F50E07E
:100D60008A81282F30E081E090E002C0880F991F2F
:100D70002A95E2F79A01282339238A81882F90E067
:100D8000A90102C0559547958A95E2F7CA018B8360
:100D900020C0E0E3F0E08081482F50E08A81282FD6
:100DA00030E081E090E002C0880F991F2A95E2F7B9
:100DB0009A01282339238A81882F90E0A90102C053
:100DC000559547958A95E2F7CA018B8302C052E098
:100DD0005B838B810F900F900F900F900F90CF91AE
:100DE000DF910895DF93CF9300D000D0CDB7DEB769
:100DF00089836A838981282F30E03C832B838B8110
:100E00009C8181309105D1F02B813C8122303105CC
:100E10002CF48B819C81009761F01EC02B813C815A
:100E20002230310581F08B819C818330910581F0E6
:100E300013C0EAE3F0E08A8180830EC0E7E3F0E0CC
:100E40008A81808309C0E4E3F0E08A81808304C062
:100E5000E1E3F0E08A8180830F900F900F900F9074
:100E6000CF91DF910895DF93CF9300D000D0CDB71D
:100E7000DEB789836A838981282F30E03C832B8306
:100E80008B819C8181309105D1F02B813C81223076
:100E900031052CF48B819C81009761F01EC02B8161
:100EA0003C812230310581F08B819C81833091051A
:100EB00081F013C0EBE3F0E08A8180830EC0E8E3A9
:100EC000F0E08A81808309C0E5E3F0E08A818083D5
:100ED00004C0E2E3F0E08A8180830F900F900F90CE
:100EE0000F90CF91DF910895DF93CF9300D000D082
:100EF00000D0CDB7DEB70E94110482E06FEF0E94F0
:100F0000F20680E00E943404909371018093700196
:100F10008091700190917101CC01A0E0B0E0BC0122
:100F2000CD010E94A301DC01CB0120916801309129
:100F3000690140916A0150916B01BC01CD010E9491
:100F40004900DC01CB0180936C0190936D01A0936B
:100F50006E01B0936F0180916C0190916D01A09131
:100F60006E01B0916F011E82BC01CD0120E030E026
:100F70004AE754E40E944301181614F481E08E837A
:100F800081E09E8189278823F9F480916C019091FA
:100F90006D01A0916E01B0916F011D82BC01CD0168
:100FA00020E030E04AEF54E40E947301882314F4F7
:100FB00081E08D8381E09D818927882329F482E067
:100FC00061E00E9433079DCF80916C0190916D018B
:100FD000A0916E01B0916F011C82BC01CD0120E097
:100FE00030E04AEF54E40E944301181614F481E003
:100FF0008C8381E09C8189278823F9F480916C019E
:1010000090916D01A0916E01B0916F011B82BC01A6
:10101000CD0120E030E84BE355E40E9473018823C2
:1010200014F481E08B8381E09B818927882329F454
:1010300082E063E00E94330764CF80916C0190915D
:101040006D01A0916E01B0916F011A82BC01CD01BA
:1010500020E030E84BE355E40E944301181614F4F5
:1010600081E08A8381E09A8189278823F9F480913D
:101070006C0190916D01A0916E01B0916F01198288
:10108000BC01CD0120E030E04AE755E40E94730145
:10109000882314F481E0898381E09981892788235A
:1010A00029F482E067E00E9433072BCF80916C0126
:1010B00090916D01A0916E01B0916F01BC01CD01C5
:1010C00020E030E04AE755E40E94430118160CF096
:1010D00018CF80916C0190916D01A0916E01B0913B
:1010E0006F01BC01CD0120E030E44CE955E40E94E1
:1010F000730188230CF005CF82E06FE00E94330774
:1011000000CF2F923F924F925F926F927F928F9279
:101110009F92AF92BF92CF92DF92EF92FF920F9386
:101120001F93CF93DF93CDB7DEB7CA1BDB0B0FB690
:10113000F894DEBF0FBECDBF09942A88398848884D
:101140005F846E847D848C849B84AA84B984C884E3
:10115000DF80EE80FD800C811B81AA81B981CE0FDA
:10116000D11D0FB6F894DEBF0FBECDBFED010895BF
:04117000F894FFCF21
:10117400000000000000000000010202030303035A
:101184000404040404040404050505050505050513
:1011940005050505050505050606060606060606F3
:1011A40006060606060606060606060606060606DB
:1011B40006060606060606060707070707070707C3
:1011C40007070707070707070707070707070707AB
:1011D400070707070707070707070707070707079B
:1011E400070707070707070707070707070707078B
:1011F4000707070707070707080808080808080873
:10120400080808080808080808080808080808085A
:10121400080808080808080808080808080808084A
:10122400080808080808080808080808080808083A
:10123400080808080808080808080808080808082A
:10124400080808080808080808080808080808081A
:10125400080808080808080808080808080808080A
:1012640008080808080808080808080808080808FA
:0C12740008080808080808089A99994022
:00000001FF
