:100000000C942A000C9434000C9434000C943400AA
:100010000C9434000C9434000C9434000C94340090
:100020000C9434000C9434000C9434000C94340080
:100030000C9434000C9434000C9434000C94340070
:100040000C9434000C9434000C9434000C94340060
:100050000C94340011241FBECFE5D8E0DEBFCDBF25
:100060000E9436000C946C000C940000DF93CF9338
:10007000CDB7DEB7E1E3F0E083E08083E4E3F0E0D6
:100080001082E5E3F0E083E08083E3E3F0E0808149
:10009000823029F4E2E3F0E081E08083F6CFE3E30D
:1000A000F0E08081813029F4E2E3F0E082E08083B7
:1000B000ECCFE3E3F0E08081882329F4E2E3F0E091
:1000C00083E08083E2CFE3E3F0E080818330E9F6F0
:0C00D000E2E3F0E01082D9CFF894FFCFFB
:00000001FF
