:100000000C942A000C9434000C9434000C943400AA
:100010000C9434000C9434000C9434000C94340090
:100020000C9434000C9434000C9434000C94340080
:100030000C9434000C9434000C9434000C94340070
:100040000C9434000C9434000C9434000C94340060
:100050000C94340011241FBECFE5D8E0DEBFCDBF25
:100060000E9436000C9453000C940000DF93CF9351
:10007000CDB7DEB7EAE3F0E01082EBE3F0E081E039
:100080008083E7E3F0E081E08083E9E3F0E08081D2
:10009000882329F4E8E3F0E081E08083F6CFE8E309
:0A00A000F0E01082F2CFF894FFCFD9
:00000001FF
