:100000000C942A000C943C000C943C000C943C0092
:100010000C943C000C943C000C943C000C943C0070
:100020000C943C000C943C000C943C000C943C0060
:100030000C943C000C943C000C943C000C943C0050
:100040000C943C000C943C000C943C000C943C0040
:100050000C943C0011241FBECFE5D8E0DEBFCDBF1D
:1000600010E0A0E6B0E001C01D92A136B107E1F7B3
:100070000E9401040C940A040C940000DF93CF93B7
:1000800000D000D00F92CDB7DEB789836A834B834F
:100090008981282F30E03D832C838C819D818130A4
:1000A000910509F446C02C813D81223031052CF4A4
:1000B0008C819D81009771F0C7C02C813D812230D9
:1000C000310509F465C08C819D818330910509F467
:1000D0008EC0BAC08B818823A1F4AAE3B0E0EAE322
:1000E000F0E08081482F8A81282F30E081E090E085
:1000F000022E02C0880F991F0A94E2F7809584238C
:100100008C938B81813009F09FC0AAE3B0E0EAE3D1
:10011000F0E08081482F8A81282F30E081E090E054
:10012000022E02C0880F991F0A94E2F7842B8C9349
:100130008BC08B818823A1F4A7E3B0E0E7E3F0E074
:100140008081482F8A81282F30E081E090E0022EC4
:1001500002C0880F991F0A94E2F7809584238C933C
:100160008B81813009F070C0A7E3B0E0E7E3F0E0F5
:100170008081482F8A81282F30E081E090E0022E94
:1001800002C0880F991F0A94E2F7842B8C935CC0FD
:100190008B818823A1F4A4E3B0E0E4E3F0E0808164
:1001A000482F8A81282F30E081E090E0022E02C0A3
:1001B000880F991F0A94E2F7809584238C938B8192
:1001C000813009F041C0A4E3B0E0E4E3F0E08081D5
:1001D000482F8A81282F30E081E090E0022E02C073
:1001E000880F991F0A94E2F7842B8C932DC08B8182
:1001F0008823A1F4A1E3B0E0E1E3F0E08081482F9F
:100200008A81282F30E081E090E0022E02C0880F22
:10021000991F0A94E2F7809584238C938B81813017
:1002200099F4A1E3B0E0E1E3F0E08081482F8A8116
:10023000282F30E081E090E0022E02C0880F991F45
:100240000A94E2F7842B8C930F900F900F900F90ED
:100250000F90CF91DF910895DF93CF9300D000D01E
:100260000F92CDB7DEB789836A834B838981282FAC
:1002700030E03D832C838C819D818130910509F490
:1002800046C02C813D81223031052CF48C819D812A
:10029000009771F0C7C02C813D812230310509F4EF
:1002A00065C08C819D818330910509F48EC0BAC0F0
:1002B0008B818823A1F4ABE3B0E0EBE3F0E0808135
:1002C000482F8A81282F30E081E090E0022E02C082
:1002D000880F991F0A94E2F7809584238C938B8171
:1002E000813009F09FC0ABE3B0E0EBE3F0E0808148
:1002F000482F8A81282F30E081E090E0022E02C052
:10030000880F991F0A94E2F7842B8C938BC08B8102
:100310008823A1F4A8E3B0E0E8E3F0E08081482F6F
:100320008A81282F30E081E090E0022E02C0880F01
:10033000991F0A94E2F7809584238C938B818130F6
:1003400009F070C0A8E3B0E0E8E3F0E08081482F56
:100350008A81282F30E081E090E0022E02C0880FD1
:10036000991F0A94E2F7842B8C935CC08B818823BD
:10037000A1F4A5E3B0E0E5E3F0E08081482F8A81B5
:10038000282F30E081E090E0022E02C0880F991FF4
:100390000A94E2F7809584238C938B81813009F055
:1003A00041C0A5E3B0E0E5E3F0E08081482F8A8119
:1003B000282F30E081E090E0022E02C0880F991FC4
:1003C0000A94E2F7842B8C932DC08B818823A1F4AF
:1003D000A2E3B0E0E2E3F0E08081482F8A81282F99
:1003E00030E081E090E0022E02C0880F991F0A944D
:1003F000E2F7809584238C938B81813099F4A2E37A
:10040000B0E0E2E3F0E08081482F8A81282F30E0DD
:1004100081E090E0022E02C0880F991F0A94E2F753
:10042000842B8C930F900F900F900F900F90CF9183
:10043000DF910895DF93CF9300D000D00F92CDB716
:10044000DEB789836A838981282F30E03D832C833E
:100450004C815D8141305105B1F18C819D818230AB
:10046000910534F42C813D812115310571F085C051
:100470004C815D814230510509F443C08C819D81DE
:100480008330910509F45BC078C0E9E3F0E0808136
:10049000482F50E08A81282F30E081E090E002C0B0
:1004A000880F991F2A95E2F79A01282339238A8118
:1004B000882F90E0A90102C0559547958A95E2F7EB
:1004C000CA018B835CC0E6E3F0E08081482F50E0F6
:1004D0008A81282F30E081E090E002C0880F991FC8
:1004E0002A95E2F79A01282339238A81882F90E000
:1004F000A90102C0559547958A95E2F7CA018B83F9
:100500003EC0E3E3F0E08081482F50E08A81282F4D
:1005100030E081E090E002C0880F991F2A95E2F751
:100520009A01282339238A81882F90E0A90102C0EB
:10053000559547958A95E2F7CA018B8320C0E0E381
:10054000F0E08081482F50E08A81282F30E081E060
:1005500090E002C0880F991F2A95E2F79A0128239C
:1005600039238A81882F90E0A90102C055954795CB
:100570008A95E2F7CA018B8302C052E05B838B81CC
:100580000F900F900F900F900F90CF91DF910895E3
:10059000DF93CF9300D000D0CDB7DEB789836A83D5
:1005A0008981282F30E03C832B838B819C81813093
:1005B0009105D1F02B813C81223031052CF48B81C7
:1005C0009C81009761F01EC02B813C812230310557
:1005D00081F08B819C818330910581F013C0EAE327
:1005E000F0E08A8180830EC0E7E3F0E08A818083B7
:1005F00009C0E4E3F0E08A81808304C0E1E3F0E035
:100600008A8180830F900F900F900F90CF91DF9190
:100610000895DF93CF9300D000D0CDB7DEB78983A4
:100620006A838981282F30E03C832B838B819C81D6
:1006300081309105D1F02B813C81223031052CF4A1
:100640008B819C81009761F01EC02B813C81223000
:10065000310581F08B819C818330910581F013C03D
:10066000EBE3F0E08A8180830EC0E8E3F0E08A816A
:10067000808309C0E5E3F0E08A81808304C0E2E37F
:10068000F0E08A8180830F900F900F900F90CF91B0
:10069000DF910895DF93CF93CDB7DEB780E060EFB1
:1006A0000E94C80280E06FEF0E940903CF91DF91A2
:1006B0000895DF93CF93CDB7DEB780E067E040E0E9
:1006C0000E942C0180E066E041E00E942C0180E065
:1006D00065E041E00E942C0180E064E041E00E947E
:1006E0002C0181E060E041E00E943E0080E060E09B
:1006F0000E941A02882341F481E060E041E00E94F8
:100700002C01109260002CC080E061E00E941A026F
:10071000882349F481E060E040E00E942C0181E000
:10072000809360001DC080E062E00E941A0288236E
:1007300049F481E060E041E00E942C0182E0809376
:1007400060000EC080E063E00E941A02882341F43A
:1007500081E060E040E00E942C0183E08093600033
:1007600080E067E041E00E942C0180E066E040E02C
:100770000E942C0180E065E041E00E942C0180E0B5
:1007800064E041E00E942C0180E060E00E941A02D7
:10079000882341F481E060E041E00E942C01109246
:1007A00060002CC080E061E00E941A02882349F4B6
:1007B00081E060E040E00E942C0181E080936000D5
:1007C0001DC080E062E00E941A02882349F481E0A3
:1007D00060E041E00E942C0182E0809360000EC046
:1007E00080E063E00E941A02882341F481E060E027
:1007F00040E00E942C0183E080936000CF91DF9164
:100800000895DF93CF93CDB7DEB70E944A030E94CD
:080810005903FDCFF894FFCF5E
:00000001FF
