:100000000C942A000C9447000C9447000C94470071
:100010000C9447000C9447000C9447000C94470044
:100020000C9447000C9447000C9447000C94470034
:100030000C9447000C9447000C9447000C94470024
:100040000C9447000C9447000C9447000C94470014
:100050000C94470011241FBECFE5D8E0DEBFCDBF12
:1000600011E0A0E6B0E0E4EFFAE302C005900D92E3
:10007000AE38B107D9F711E0AEE8B1E001C01D928A
:10008000A239B107E1F70E94601C0C94781D0C9412
:100090000000EF92FF920F931F937B018C0120E0F1
:1000A00030E040E05FE40E94490388238CF0C801FF
:1000B000B70120E030E040E05FE40E94C1010E940F
:1000C000A9039B01AC01205030404040504806C07D
:1000D000C801B7010E94A9039B01AC01B901CA0183
:1000E0001F910F91FF90EF900895A0E0B0E0EBE733
:1000F000F0E00C94411DDC012B01FA019C9192303F
:1001000008F439C1EB018881823008F433C194309E
:1001100069F4843009F02FC111969C91119789815F
:10012000981709F428C1A1E8B0E025C1843009F48A
:1001300021C18230A9F4923009F01DC19A01AD01AC
:1001400088E0EA010990AE01E90109929E0181501F
:10015000C1F7E201898111969C918923818308C1AD
:10016000923009F407C112962D903C901397EB0141
:100170008A819B811496AD90BD90CD90DC901797AD
:10018000EC80FD800E811F819101281B390BB90184
:1001900037FF04C066277727621B730B6032710537
:1001A0000CF061C0121613066CF537014801062EDB
:1001B00004C096948794779467940A94D2F721E0C8
:1001C00030E040E050E004C0220F331F441F551FB1
:1001D0006A95D2F721503040404050402E213F21B7
:1001E00040235123211531054105510521F021E01E
:1001F00030E040E050E079018A01E628F72808293C
:1002000019293CC0232BD1F1260E371E350146019A
:10021000062E04C096948794779467940A94D2F734
:1002200021E030E040E050E004C0220F331F441FC3
:10023000551F6A95D2F721503040404050402A2146
:100240003B214C215D21211531054105510521F04E
:1002500021E030E040E050E059016A01A628B728CB
:10026000C828D9280BC0821593052CF01C01AA249C
:10027000BB24650103C0EE24FF24870111969C91E5
:10028000D20111968C91981709F445C0992339F041
:10029000A80197012A193B094C095D0906C0A6016E
:1002A00095012E193F09400B510B57FD08C01182D3
:1002B0003382228224833583468357831DC081E0A5
:1002C00081833382228288279927DC01821B930B4A
:1002D000A40BB50B84839583A683B7830DC0220F2F
:1002E000331F441F551F24833583468357838281E0
:1002F000938101979383828324813581468157813D
:10030000DA01C9010197A109B1098F5F9F4FAF4F72
:10031000BF4328F30BC0918333822282EA0CFB1C7B
:100320000C1D1D1DE482F5820683178383E0808304
:10033000248135814681578157FF1AC0C901AA27F8
:1003400097FDA095BA2F81709070A070B0705695EF
:10035000479537952795822B932BA42BB52B848318
:100360009583A683B7838281938101969383828349
:10037000DF0101C0D201CD01CDB7DEB7E2E10C94BF
:100380005D1DA0E2B0E0E7ECF1E00C944D1D698347
:100390007A838B839C832D833E834F835887E9E048
:1003A000EE2EF12CEC0EFD1ECE010196B7010E943F
:1003B0009A058E010F5E1F4FCE010596B8010E946F
:1003C0009A058A8991E089278A8BC701B801AE0115
:1003D000475E5F4F0E9475000E94C504A096E6E04C
:1003E0000C94691DA0E2B0E0E8EFF1E00C944D1D23
:1003F00069837A838B839C832D833E834F835887C5
:10040000F9E0EF2EF12CEC0EFD1ECE010196B701A6
:100410000E949A058E010F5E1F4FCE010596B8010E
:100420000E949A05C701B801AE01475E5F4F0E9466
:1004300075000E94C504A096E6E00C94691DA0E238
:10044000B0E0E5E2F2E00C94411D69837A838B838E
:100450009C832D833E834F835887CE010196BE0136
:10046000675F7F4F0E949A05CE010596BE016F5EC1
:100470007F4F0E949A059985923088F08989823051
:10048000C8F0943019F4823051F404C0843029F457
:10049000923081F481E890E0C6C0923049F420E0C7
:1004A0009A858A89981321E02A87CE010996BBC0D4
:1004B000823049F420E09A858A89981321E02A8BBA
:1004C000CE014196B0C02D843E844F8458886D88FB
:1004D0007E888F88988CEE24FF248701AA24BB2471
:1004E000650140E050E060E070E0E0E0F0E0C10174
:1004F00081709070892BE9F0E60CF71C081D191D1E
:100500009A01AB012A0D3B1D4C1D5D1D80E090E062
:10051000A0E0B0E0E614F7040805190520F481E036
:1005200090E0A0E0B0E0BA01A901480F591F6A1F8E
:100530007B1FAA0CBB1CCC1CDD1C97FE08C081E0F5
:1005400090E0A0E0B0E0A82AB92ACA2ADB2A3196B6
:10055000E032F10549F0660C771C881C991C569412
:10056000479437942794C3CFFA85EA892B893C892D
:100570008B859C85280F391F2E5F3F4F17C0CA01FE
:1005800081709070892B61F016950795F794E79428
:1005900080E090E0A0E0B0E8E82AF92A0A2B1B2BC3
:1005A00076956795579547952F5F3F4F77FDE7CF36
:1005B0000CC0440F551F661F771F17FD4160EE0CDE
:1005C000FF1C001F111F21503040403090E05907A0
:1005D00090E0690790E4790760F32B8F3C8FDB0193
:1005E000CA018F779070A070B07080349105A1051A
:1005F000B10561F447FD0AC0E114F10401051105DC
:1006000029F0405C5F4F6F4F7F4F40781A8EFE1786
:1006100011F081E08A8F4D8F5E8F6F8F78A383E01A
:10062000898FCE0149960E94C504A096E2E10C9400
:100630005D1DA8E1B0E0EFE1F3E00C944D1D69838E
:100640007A838B839C832D833E834F83588789E0F5
:10065000E82EF12CEC0EFD1ECE010196B7010E9492
:100660009A058E010F5E1F4FCE010596B8010E94BC
:100670009A058985823040F08989823028F0C70147
:10068000B8010E94120601C08FEF6896E6E00C9454
:10069000691DA8E1B0E0EFE4F3E00C944D1D69831F
:1006A0007A838B839C832D833E834F83588789E095
:1006B000E82EF12CEC0EFD1ECE010196B7010E9432
:1006C0009A058E010F5E1F4FCE010596B8010E945C
:1006D0009A058985823040F08989823028F0C701E7
:1006E000B8010E94120601C08FEF6896E6E00C94F4
:1006F000691DA8E1B0E0EFE7F3E00C944D1D6983BC
:100700007A838B839C832D833E834F83588789E034
:10071000E82EF12CEC0EFD1ECE010196B7010E94D1
:100720009A058E010F5E1F4FCE010596B8010E94FB
:100730009A058985823040F08989823028F0C70186
:10074000B8010E94120601C081E06896E6E00C94B0
:10075000691DACE0B0E0EFEAF3E00C94511D698351
:100760007A838B839C83CE010196BE016B5F7F4FA2
:100770000E949A058D81823061F1823050F184307F
:1007800021F48E81882351F12EC02F81388537FDC9
:1007900020C06E812F3131051CF06623F9F023C093
:1007A0008EE190E0821B930B29853A854B855C8511
:1007B00004C056954795379527958A95D2F76623B5
:1007C000B1F050954095309521953F4F4F4F5F4F79
:1007D0000EC020E030E040E050E009C02FEF3FEFD6
:1007E0004FEF5FE704C020E030E040E050E8B9019F
:1007F000CA012C96E2E00C946D1DA8E0B0E0E3E0A5
:10080000F4E00C94491D7B018C0161157105810593
:10081000910519F482E0898360C083E089838EE1C9
:10082000C82ED12CDC82CB82ED82FE820F8318870A
:10083000C801B7010E947604FC013197F7FF3BC065
:10084000222733272E1B3F0B57016801022E04C0BD
:10085000D694C794B794A7940A94D2F740E050E096
:1008600060E070E081E090E0A0E0B0E004C0880FBC
:10087000991FAA1FBB1F2A95D2F70197A109B10999
:100880008E219F21A023B1230097A105B10521F05E
:1008900041E050E060E070E04A295B296C297D2945
:1008A0004D835E836F8378878EE190E08E1B9F0B74
:1008B0009C838B8312C0309781F00E2E04C0EE0C07
:1008C000FF1C001F111F0A94D2F7ED82FE820F83D6
:1008D0001887CE1ADF0ADC82CB821A82CE010196FB
:1008E0000E94C5042896EAE00C94651DEF92FF92E1
:1008F0000F931F937B018C0180E0E81680E0F806DF
:1009000081E0080780E0180788F48FEFE816F1040B
:100910000105110531F028F088E090E0A0E0B0E09A
:1009200017C080E090E0A0E0B0E012C080E0E816E0
:1009300080E0F80680E0080781E0180728F088E1E9
:1009400090E0A0E0B0E004C080E190E0A0E0B0E082
:1009500020E230E040E050E0281B390B4A0B5B0BF3
:1009600004C016950795F794E7948A95D2F7F70196
:10097000E757FF4F8081281B310941095109C901FF
:100980001F910F91FF90EF900895DF92EF92FF92E9
:100990000F931F93FC01E480F58006811781D180BD
:1009A0008081823048F480E090E0A0E1B0E0E82A65
:1009B000F92A0A2B1B2BA5C0843009F49FC0823072
:1009C00021F4EE24FF24870105C0E114F1040105A0
:1009D000110519F4E0E0F0E096C0628173819FEFA9
:1009E000623879070CF05BC022E83FEF261B370B1B
:1009F0002A3131052CF020E030E040E050E02AC000
:100A0000B801A701022E04C07695679557954795C2
:100A10000A94D2F781E090E0A0E0B0E004C0880F33
:100A2000991FAA1FBB1F2A95D2F70197A109B109E7
:100A30008E219F21A023B1230097A105B10521F0AC
:100A400081E090E0A0E0B0E09A01AB01282B392BC7
:100A50004A2B5B2BDA01C9018F779070A070B070C0
:100A600080349105A105B10539F427FF09C0205C48
:100A70003F4F4F4F5F4F04C0215C3F4F4F4F5F4F81
:100A8000E0E0F0E02030A0E03A07A0E04A07A0E470
:100A90005A0710F0E1E0F0E079018A0127C06038E0
:100AA000710564F5FB01E158FF4FD801C7018F774D
:100AB0009070A070B07080349105A105B10539F433
:100AC000E7FE0DC080E490E0A0E0B0E004C08FE35A
:100AD00090E0A0E0B0E0E80EF91E0A1F1B1F17FF10
:100AE00005C016950795F794E794319687E016951B
:100AF0000795F794E7948A95D1F705C0EE24FF2473
:100B00008701EFEFF0E06E2F679566276795902FCE
:100B10009F77D794DD24D7948E2F8695492F462B27
:100B2000582F5D29B701CA011F910F91FF90EF90D7
:100B3000DF900895FC01DB01408151812281622F09
:100B40006F7770E0221F2227221F9381892F880F41
:100B5000822B282F30E0991F9927991F11969C937B
:100B6000119721153105A9F541155105610571054B
:100B700011F482E037C082E89FEF13969C938E9326
:100B800012979A01AB0167E0220F331F441F551FD4
:100B90006A95D1F783E08C930DC0220F331F441F59
:100BA000551F12968D919C911397019713969C93C4
:100BB0008E931297203080E0380780E0480780E469
:100BC000580758F314962D933D934D935C931797C4
:100BD00008952F3F310579F44115510561057105DF
:100BE00019F484E08C93089564FF03C081E08C9332
:100BF00012C01C9210C02F57304013963C932E9376
:100C0000129783E08C9387E0440F551F661F771F70
:100C10008A95D1F7706414964D935D936D937C9390
:100C2000179708951F93DC01FB019C91923008F403
:100C300047C08081823008F443C0943051F411964B
:100C40001C91843099F58181682F70E0611B7109D6
:100C50003FC0843021F0923031F48230B9F181818B
:100C6000882389F12DC011961C9111978230F1F0E3
:100C700081811817D9F412962D913C911397828196
:100C800093818217930794F028173907BCF01496C4
:100C90008D919D910D90BC91A02D2481358146812F
:100CA0005781281739074A075B0718F4112341F0C9
:100CB0000AC082179307A407B50740F4112319F05F
:100CC00061E070E005C06FEF7FEF02C060E070E0B0
:100CD000CB011F910895DF93CF93CDB7DEB7A7E285
:100CE000B0E0E7E2F0E0808180648C93A6E2B0E0BF
:100CF000E6E2F0E0808180688C93A6E2B0E0E6E274
:100D0000F0E0808181608C93A6E2B0E0E6E2F0E062
:100D1000808184608C93CF91DF910895DF93CF938E
:100D20000F92CDB7DEB78983A7E2B0E0E7E2F0E04B
:100D30008081807E8C93A7E2B0E0E7E2F0E09081D2
:100D40008981892B8C93A6E2B0E0E6E2F0E0808115
:100D500080648C93E6E2F0E08081882F90E08071DF
:100D600090700097B9F3A6E2B0E0E6E2F0E080818F
:100D700080618C93E4E2F0E0808191810F90CF91CB
:100D8000DF910895DF93CF9300D000D00F92CDB7BD
:100D9000DEB789836A834B838981282F30E03D83C6
:100DA0002C838C819D818130910509F446C02C8172
:100DB0003D81223031052CF48C819D81009771F0AA
:100DC000C7C02C813D812230310509F465C08C817A
:100DD0009D818330910509F48EC0BAC08B81882330
:100DE000A1F4AAE3B0E0EAE3F0E08081482F8A8131
:100DF000282F30E081E090E0022E02C0880F991F7A
:100E00000A94E2F7809584238C938B81813009F0DA
:100E10009FC0AAE3B0E0EAE3F0E08081482F8A8136
:100E2000282F30E081E090E0022E02C0880F991F49
:100E30000A94E2F7842B8C938BC08B818823A1F4D6
:100E4000A7E3B0E0E7E3F0E08081482F8A81282F14
:100E500030E081E090E0022E02C0880F991F0A94D2
:100E6000E2F7809584238C938B81813009F070C0E8
:100E7000A7E3B0E0E7E3F0E08081482F8A81282FE4
:100E800030E081E090E0022E02C0880F991F0A94A2
:100E9000E2F7842B8C935CC08B818823A1F4A4E3BC
:100EA000B0E0E4E3F0E08081482F8A81282F30E031
:100EB00081E090E0022E02C0880F991F0A94E2F7A9
:100EC000809584238C938B81813009F041C0A4E309
:100ED000B0E0E4E3F0E08081482F8A81282F30E001
:100EE00081E090E0022E02C0880F991F0A94E2F779
:100EF000842B8C932DC08B818823A1F4A1E3B0E0D7
:100F0000E1E3F0E08081482F8A81282F30E081E002
:100F100090E0022E02C0880F991F0A94E2F7809594
:100F200084238C938B81813099F4A1E3B0E0E1E3D9
:100F3000F0E08081482F8A81282F30E081E090E026
:100F4000022E02C0880F991F0A94E2F7842B8C931B
:100F50000F900F900F900F900F90CF91DF91089509
:100F6000DF93CF9300D000D00F92CDB7DEB7898347
:100F70006A834B838981282F30E03D832C838C81C9
:100F80009D818130910509F446C02C813D8122303C
:100F900031052CF48C819D81009771F0C7C02C81A4
:100FA0003D812230310509F465C08C819D818330FB
:100FB000910509F48EC0BAC08B818823A1F4ABE3FC
:100FC000B0E0EBE3F0E08081482F8A81282F30E009
:100FD00081E090E0022E02C0880F991F0A94E2F788
:100FE000809584238C938B81813009F09FC0ABE383
:100FF000B0E0EBE3F0E08081482F8A81282F30E0D9
:1010000081E090E0022E02C0880F991F0A94E2F757
:10101000842B8C938BC08B818823A1F4A8E3B0E050
:10102000E8E3F0E08081482F8A81282F30E081E0DA
:1010300090E0022E02C0880F991F0A94E2F7809573
:1010400084238C938B81813009F070C0A8E3B0E0D9
:10105000E8E3F0E08081482F8A81282F30E081E0AA
:1010600090E0022E02C0880F991F0A94E2F7842BA9
:101070008C935CC08B818823A1F4A5E3B0E0E5E309
:10108000F0E08081482F8A81282F30E081E090E0D5
:10109000022E02C0880F991F0A94E2F780958423DC
:1010A0008C938B81813009F041C0A5E3B0E0E5E38A
:1010B000F0E08081482F8A81282F30E081E090E0A5
:1010C000022E02C0880F991F0A94E2F7842B8C939A
:1010D0002DC08B818823A1F4A2E3B0E0E2E3F0E02D
:1010E0008081482F8A81282F30E081E090E0022E15
:1010F00002C0880F991F0A94E2F7809584238C938D
:101100008B81813099F4A2E3B0E0E2E3F0E08081EA
:10111000482F8A81282F30E081E090E0022E02C023
:10112000880F991F0A94E2F7842B8C930F900F90ED
:101130000F900F900F90CF91DF910895DF93CF9391
:1011400000D000D00F92CDB7DEB789836A83898142
:10115000282F30E03D832C834C815D814130510547
:10116000B1F18C819D818230910534F42C813D81D7
:101170002115310571F085C04C815D8142305105EA
:1011800009F443C08C819D818330910509F45BC0D3
:1011900078C0E9E3F0E08081482F50E08A81282F71
:1011A00030E081E090E002C0880F991F2A95E2F7B5
:1011B0009A01282339238A81882F90E0A90102C04F
:1011C000559547958A95E2F7CA018B835CC0E6E3A3
:1011D000F0E08081482F50E08A81282F30E081E0C4
:1011E00090E002C0880F991F2A95E2F79A01282300
:1011F00039238A81882F90E0A90102C0559547952F
:101200008A95E2F7CA018B833EC0E3E3F0E0808178
:10121000482F50E08A81282F30E081E090E002C022
:10122000880F991F2A95E2F79A01282339238A818A
:10123000882F90E0A90102C0559547958A95E2F75D
:10124000CA018B8320C0E0E3F0E08081482F50E0AA
:101250008A81282F30E081E090E002C0880F991F3A
:101260002A95E2F79A01282339238A81882F90E072
:10127000A90102C0559547958A95E2F7CA018B836B
:1012800002C052E05B838B810F900F900F900F9004
:101290000F90CF91DF910895DF93CF9300D000D0CE
:1012A000CDB7DEB789836A838981282F30E03C83FC
:1012B0002B838B819C8181309105D1F02B813C81E6
:1012C000223031052CF48B819C81009761F01EC087
:1012D0002B813C812230310581F08B819C818330D0
:1012E000910581F013C0EAE3F0E08A8180830EC0AB
:1012F000E7E3F0E08A81808309C0E4E3F0E08A81DB
:10130000808304C0E1E3F0E08A8180830F900F9036
:101310000F900F90CF91DF910895DF93CF9300D07E
:1013200000D0CDB7DEB789836A838981282F30E06A
:101330003C832B838B819C8181309105D1F02B8163
:101340003C81223031052CF48B819C81009761F027
:101350001EC02B813C812230310581F08B819C8124
:101360008330910581F013C0EBE3F0E08A81808344
:101370000EC0E8E3F0E08A81808309C0E5E3F0E095
:101380008A81808304C0E2E3F0E08A8180830F9049
:101390000F900F900F90CF91DF910895DF93CF932F
:1013A000CDB7DEB72F970FB6F894DEBF0FBECDBF17
:1013B0008F8782E061E040E00E94B00782E060E059
:1013C00040E00E94B0078F85282F30E083E090E056
:1013D000B9010E948D0982E062E041E00E94B007FD
:1013E00080E090E0A0E0B0E48B879C87AD87BE876B
:1013F0006B857C858D859E8520E030E04AEF54E446
:101400000E941F02DC01CB018F839887A987BA87CE
:101410006F81788589859A8520E030E040E85FE338
:101420000E94790388232CF481E090E09E838D83D1
:101430003FC06F81788589859A8520E03FEF4FE72F
:1014400057E40E94190318164CF56B857C858D8531
:101450009E8520E030E040E251E40E941F02DC0162
:10146000CB01BC01CD010E944900DC01CB019E8370
:101470008D830FC088EC90E09C838B838B819C8153
:101480000197F1F79C838B838D819E8101979E83C9
:101490008D838D819E81009769F714C06F81788557
:1014A00089859A850E944900DC01CB019E838D834A
:1014B0008D819E819A83898389819A810197F1F731
:1014C0009A83898382E062E040E00E94B0072F9611
:1014D0000FB6F894DEBF0FBECDBFCF91DF91089558
:1014E000DF93CF93CDB7DEB72F970FB6F894DEBF5B
:1014F0000FBECDBF8F8782E061E040E00E94B00761
:1015000082E060E041E00E94B0078F85282F30E044
:1015100083E090E0B9010E948D0982E062E041E041
:101520000E94B00780E090E0A0E0B0E48B879C8749
:10153000AD87BE876B857C858D859E8520E030E0FC
:101540004AEF54E40E941F02DC01CB018F8398878D
:10155000A987BA876F81788589859A8520E030E0F0
:1015600040E85FE30E94790388232CF481E090E057
:101570009E838D833FC06F81788589859A8520E021
:101580003FEF4FE757E40E94190318164CF56B859F
:101590007C858D859E8520E030E040E251E40E940C
:1015A0001F02DC01CB01BC01CD010E944900DC011E
:1015B000CB019E838D830FC088EC90E09C838B834E
:1015C0008B819C810197F1F79C838B838D819E8118
:1015D00001979E838D838D819E81009769F714C04A
:1015E0006F81788589859A850E944900DC01CB014D
:1015F0009E838D838D819E819A83898389819A813F
:101600000197F1F79A83898382E062E040E00E94CB
:10161000B0072F960FB6F894DEBF0FBECDBFCF91A7
:10162000DF910895DF93CF93CDB7DEB7AA970FB6BA
:10163000F894DEBF0FBECDBF82E060E041E00E94C3
:10164000C20682E061E041E00E94C20682E062E000
:1016500041E00E94C20683E06FEF0E944C0980E0E7
:1016600090E0A8E4B2E48FA398A7A9A7BAA76FA1B6
:1016700078A589A59AA520E030E04AEF54E40E94BD
:101680001F02DC01CB018BA39CA3ADA3BEA36BA166
:101690007CA18DA19EA120E030E040E85FE30E94A4
:1016A000790388232CF481E090E09AA389A33FC0BA
:1016B0006BA17CA18DA19EA120E03FEF4FE757E4F5
:1016C0000E94190318164CF56FA178A589A59AA553
:1016D00020E030E040E251E40E941F02DC01CB0137
:1016E000BC01CD010E944900DC01CB019AA389A372
:1016F0000FC088EC90E098A38F8F8F8D98A10197F1
:10170000F1F798A38F8F89A19AA101979AA389A332
:1017100089A19AA1009769F714C06BA17CA18DA142
:101720009EA10E944900DC01CB019AA389A389A153
:101730009AA19E8F8D8F8D8D9E8D0197F1F79E8F33
:101740008D8F8CE30E94CE0980E090E0A0E0B0E4B1
:10175000898F9A8FAB8FBC8F698D7A8D8B8D9C8D85
:1017600020E030E04AEF54E40E941F02DC01CB018C
:101770008D8B9E8BAF8BB88F6D897E898F89988D6D
:1017800020E030E040E85FE30E94790388232CF4F6
:1017900081E090E09C8B8B8B3FC06D897E898F8927
:1017A000988D20E03FEF4FE757E40E941903181689
:1017B0004CF5698D7A8D8B8D9C8D20E030E040E278
:1017C00051E40E941F02DC01CB01BC01CD010E944B
:1017D0004900DC01CB019C8B8B8B0FC088EC90E027
:1017E0009A8B898B89899A890197F1F79A8B898BD2
:1017F0008B899C8901979C8B8B8B8B899C8900970B
:1018000069F714C06D897E898F89988D0E9449007F
:10181000DC01CB019C8B8B8B8B899C89988B8F8770
:101820008F8598890197F1F7988B8F878EE00E94BA
:10183000CE0980E090E0A0E0B0E48B879C87AD8784
:10184000BE876B857C858D859E8520E030E04AEFE4
:1018500054E40E941F02DC01CB018F839887A98783
:10186000BA876F81788589859A8520E030E040E8E5
:101870005FE30E94790388232CF481E090E09E834B
:101880008D833FC06F81788589859A8520E03FEF01
:101890004FE757E40E94190318164CF56B857C85B9
:1018A0008D859E8520E030E040E251E40E941F02D9
:1018B000DC01CB01BC01CD010E944900DC01CB0160
:1018C0009E838D830FC088EC90E09C838B838B81FB
:1018D0009C810197F1F79C838B838D819E81019779
:1018E0009E838D838D819E81009769F714C06F81DF
:1018F000788589859A850E944900DC01CB019E8309
:101900008D838D819E819A83898389819A810197B4
:10191000F1F79A83898381E00E94CE09AA960FB6D7
:10192000F894DEBF0FBECDBFCF91DF910895DF9356
:10193000CF9300D000D00F92CDB7DEB78A836B83F0
:1019400019828A81282F30E03D832C838C819D81F0
:101950008130910531F02C813D8122303105B9F083
:101960002BC080E80E94CE0980E10E94CE0980E170
:101970000E94CE09198206C084E10E94CE098981A5
:101980008F5F898399818B818917B0F715C080ECAF
:101990000E94CE0980E10E94CE0980E10E94CE091A
:1019A000198206C084E10E94CE0989818F5F8983F4
:1019B00099818B818917B0F70F900F900F900F903E
:1019C0000F90CF91DF910895DF93CF93CDB7DEB71E
:1019D000A1970FB6F894DEBF0FBECDBF8E8F6F8F6D
:1019E00059A348A31D8E8E8D6F8D0E94970C80E0A9
:1019F00090E0A0E0B0E4898F9A8FAB8FBC8F698DA7
:101A00007A8D8B8D9C8D20E030E04AEF54E40E946B
:101A10001F02DC01CB018D8B9E8BAF8BB88F6D8944
:101A20007E898F89988D20E030E040E85FE30E9456
:101A3000790388232CF481E090E09C8B8B8B3FC052
:101A40006D897E898F89988D20E03FEF4FE757E4BD
:101A50000E94190318164CF5698D7A8D8B8D9C8D1B
:101A600020E030E040E251E40E941F02DC01CB01A3
:101A7000BC01CD010E944900DC01CB019C8B8B8B0A
:101A80000FC088EC90E09A8B898B89899A8901979D
:101A9000F1F79A8B898B8B899C8901979C8B8B8B17
:101AA0008B899C89009769F795C06D897E898F899C
:101AB000988D0E944900DC01CB019C8B8B8B8B891C
:101AC0009C89988B8F878F8598890197F1F7988BE0
:101AD0008F8780C08D8D282F30E088A199A1FC01CF
:101AE000E20FF31F80810E94700A80E090E0A0E086
:101AF000B0E48B879C87AD87BE876B857C858D85A1
:101B00009E8520E030E04AEF54E40E941F02DC0191
:101B1000CB018F839887A987BA876F81788589855C
:101B20009A8520E030E040E85FE30E947903882353
:101B30002CF481E090E09E838D833FC06F81788597
:101B400089859A8520E03FEF4FE757E40E9419030B
:101B500018164CF56B857C858D859E8520E030E0E0
:101B600040E251E40E941F02DC01CB01BC01CD0127
:101B70000E944900DC01CB019E838D830FC088EC5D
:101B800090E09C838B838B819C810197F1F79C83F0
:101B90008B838D819E8101979E838D838D819E8114
:101BA000009769F714C06F81788589859A850E94AE
:101BB0004900DC01CB019E838D838D819E819A83B8
:101BC000898389819A810197F1F79A8389838D8D21
:101BD0008F5F8D8F8D8D282F30E088A199A1FC011A
:101BE000E20FF31F8081882309F074CFA1960FB60E
:101BF000F894DEBF0FBECDBFCF91DF910895DF9384
:101C0000CF93CDB7DEB76F970FB6F894DEBF0FBE98
:101C1000CDBF9F8F8E8F1D8E80E090E0A0E0B0E45E
:101C2000898F9A8FAB8FBC8F698D7A8D8B8D9C8DB0
:101C300020E030E04AEF54E40E941F02DC01CB01B7
:101C40008D8B9E8BAF8BB88F6D897E898F89988D98
:101C500020E030E040E85FE30E94790388232CF421
:101C600081E090E09C8B8B8B3FC06D897E898F8952
:101C7000988D20E03FEF4FE757E40E9419031816B4
:101C80004CF5698D7A8D8B8D9C8D20E030E040E2A3
:101C900051E40E941F02DC01CB01BC01CD010E9476
:101CA0004900DC01CB019C8B8B8B0FC088EC90E052
:101CB0009A8B898B89899A890197F1F79A8B898BFD
:101CC0008B899C8901979C8B8B8B8B899C89009736
:101CD00069F795C06D897E898F89988D0E9449002A
:101CE000DC01CB019C8B8B8B8B899C89988B8F879C
:101CF0008F8598890197F1F7988B8F8780C08D8D9C
:101D0000282F30E08E8D9F8DFC01E20FF31F808124
:101D10000E94700A80E090E0A0E0B0E48B879C878E
:101D2000AD87BE876B857C858D859E8520E030E004
:101D30004AEF54E40E941F02DC01CB018F83988795
:101D4000A987BA876F81788589859A8520E030E0F8
:101D500040E85FE30E94790388232CF481E090E05F
:101D60009E838D833FC06F81788589859A8520E029
:101D70003FEF4FE757E40E94190318164CF56B85A7
:101D80007C858D859E8520E030E040E251E40E9414
:101D90001F02DC01CB01BC01CD010E944900DC0126
:101DA000CB019E838D830FC088EC90E09C838B8356
:101DB0008B819C810197F1F79C838B838D819E8120
:101DC00001979E838D838D819E81009769F714C052
:101DD0006F81788589859A850E944900DC01CB0155
:101DE0009E838D838D819E819A83898389819A8147
:101DF0000197F1F79A8389838D8D8F5F8D8F8D8DFC
:101E0000282F30E08E8D9F8DFC01E20FF31F808123
:101E1000882309F074CF6F960FB6F894DEBF0FBE1B
:101E2000CDBFCF91DF910895DF93CF93CDB7DEB7CC
:101E3000A6970FB6F894DEBF0FBECDBF89A36AA3E5
:101E40002BA33CA34DA35EA38BA19CA1ADA1BEA1DE
:101E50008A309105A105B10548F489A16AA10E94C3
:101E6000970C8BA1805D0E94700A9DC58BA19CA1DF
:101E7000ADA1BEA18A309105A105B105E8F18BA104
:101E80009CA1ADA1BEA184369105A105B105A0F527
:101E900089A16AA10E94970C80E10E94CE098BA1C2
:101EA0009CA1ADA1BEA12AE030E040E050E0BC0121
:101EB000CD010E941F1DDA01C9018D8F9E8FAF8F4A
:101EC000B8A38D8D805D0E94700A8BA19CA1ADA1ED
:101ED000BEA12AE030E040E050E0BC01CD010E940C
:101EE0001F1DDC01CB01898F9A8FAB8FBC8F898D31
:101EF000805D0E94700A57C58BA19CA1ADA1BEA1B7
:101F000084369105A105B10508F46CC08BA19CA194
:101F1000ADA1BEA1883E23E0920720E0A20720E009
:101F2000B20708F05FC089A16AA10E94970C80E106
:101F30000E94CE0980E10E94CE098BA19CA1ADA197
:101F4000BEA124E630E040E050E0BC01CD010E949B
:101F50001F1DDA01C9018D8F9E8FAF8FB8A38D8DA4
:101F6000805D0E94700A8BA19CA1ADA1BEA124E658
:101F700030E040E050E0BC01CD010E941F1DDC01BB
:101F8000CB018D8F9E8FAF8FB8A38D8D9E8DAF8D22
:101F9000B8A12AE030E040E050E0BC01CD010E9451
:101FA0001F1DDA01C901898F9A8FAB8FBC8F898D74
:101FB000805D0E94700A8D8D9E8DAF8DB8A12AE044
:101FC00030E040E050E0BC01CD010E941F1DDC016B
:101FD000CB01898F9A8FAB8FBC8F898D805D0E94DA
:101FE000700AE1C48BA19CA1ADA1BEA1883E23E0F3
:101FF000920720E0A20720E0B20708F497C08BA167
:102000009CA1ADA1BEA1803127E2920720E0A207EA
:1020100020E0B20708F08AC089A16AA10E94970C4B
:1020200080E10E94CE0980E10E94CE0980E10E94F9
:10203000CE098BA19CA1ADA1BEA128EE33E040E06A
:1020400050E0BC01CD010E941F1DDA01C9018D8F36
:102050009E8FAF8FB8A38D8D805D0E94700A8BA17B
:102060009CA1ADA1BEA128EE33E040E050E0BC0150
:10207000CD010E941F1DDC01CB01898F9A8FAB8F90
:10208000BC8F898D9A8DAB8DBC8D24E630E040E00D
:1020900050E0BC01CD010E941F1DDA01C9018D8BEA
:1020A0009E8BAF8BB88F8D89805D0E94700A898D61
:1020B0009A8DAB8DBC8D24E630E040E050E0BC0151
:1020C000CD010E941F1DDC01CB01898B9A8BAB8B4C
:1020D000BC8B89899A89AB89BC892AE030E040E0D1
:1020E00050E0BC01CD010E941F1DDA01C9018D879E
:1020F0009E87AF87B88B8D85805D0E94700A898925
:102100009A89AB89BC892AE030E040E050E0BC010C
:10211000CD010E941F1DDC01CB0189879A87AB8707
:10212000BC878985805D0E94700A3DC48BA19CA1FB
:10213000ADA1BEA1803127E2920720E0A20720E0F6
:10214000B20708F4C2C08BA19CA1ADA1BEA1803A88
:1021500026E8920721E0A20720E0B20708F0B5C008
:1021600089A16AA10E94970C80E10E94CE0980E1BA
:102170000E94CE0980E10E94CE0980E10E94CE0932
:102180008BA19CA1ADA1BEA120E137E240E050E0CF
:10219000BC01CD010E941F1DDA01C9018D8F9E8FE8
:1021A000AF8FB8A38D8D805D0E94700A8BA19CA11A
:1021B000ADA1BEA120E137E240E050E0BC01CD017D
:1021C0000E941F1DDC01CB018D8F9E8FAF8FB8A3A6
:1021D0008D8D9E8DAF8DB8A128EE33E040E050E0AC
:1021E000BC01CD010E941F1DDA01C901898F9A8FA0
:1021F000AB8FBC8F898D805D0E94700A8D8D9E8D06
:10220000AF8DB8A128EE33E040E050E0BC01CD0135
:102210000E941F1DDC01CB01898F9A8FAB8FBC8F71
:10222000898D9A8DAB8DBC8D24E630E040E050E086
:10223000BC01CD010E941F1DDA01C9018D8B9E8B4F
:10224000AF8BB88F8D89805D0E94700A898D9A8DC1
:10225000AB8DBC8D24E630E040E050E0BC01CD0108
:102260000E941F1DDC01CB01898B9A8BAB8BBC8B31
:1022700089899A89AB89BC892AE030E040E050E046
:10228000BC01CD010E941F1DDA01C9018D879E8707
:10229000AF87B88B8D85805D0E94700A89899A8985
:1022A000AB89BC892AE030E040E050E0BC01CD01C0
:1022B0000E941F1DDC01CB0189879A87AB87BC87F1
:1022C0008985805D0E94700A6EC38BA19CA1ADA11F
:1022D000BEA1803A26E8920721E0A20720E0B207DB
:1022E00008F4EDC08BA19CA1ADA1BEA1803422E475
:1022F00092072FE0A20720E0B20708F0E0C089A112
:102300006AA10E94970C80E10E94CE0980E10E94A0
:10231000CE0980E10E94CE0980E10E94CE0980E1D1
:102320000E94CE098BA19CA1ADA1BEA120EA36E8F6
:1023300041E050E0BC01CD010E941F1DDA01C9013E
:102340008D8F9E8FAF8FB8A38D8D805D0E94700A98
:102350008BA19CA1ADA1BEA120EA36E841E050E0EE
:10236000BC01CD010E941F1DDC01CB018D8F9E8F12
:10237000AF8FB8A38D8D9E8DAF8DB8A120E137E2D0
:1023800040E050E0BC01CD010E941F1DDA01C901EF
:10239000898F9A8FAB8FBC8F898D805D0E94700A68
:1023A0008D8D9E8DAF8DB8A120E137E240E050E0E9
:1023B000BC01CD010E941F1DDC01CB01898F9A8FCA
:1023C000AB8FBC8F898D9A8DAB8DBC8D28EE33E0A1
:1023D00040E050E0BC01CD010E941F1DDA01C9019F
:1023E0008D8B9E8BAF8BB88F8D89805D0E94700A1C
:1023F000898D9A8DAB8DBC8D28EE33E040E050E0A6
:10240000BC01CD010E941F1DDC01CB018D8B9E8B79
:10241000AF8BB88F8D899E89AF89B88D24E630E067
:1024200040E050E0BC01CD010E941F1DDA01C9014E
:10243000898B9A8BAB8BBC8B8989805D0E94700ADB
:102440008D899E89AF89B88D24E630E040E050E068
:10245000BC01CD010E941F1DDC01CB01898B9A8B31
:10246000AB8BBC8B89899A89AB89BC892AE030E027
:1024700040E050E0BC01CD010E941F1DDA01C901FE
:102480008D879E87AF87B88B8D85805D0E94700A8F
:1024900089899A89AB89BC892AE030E040E050E024
:1024A000BC01CD010E941F1DDC01CB0189879A87E9
:1024B000AB87BC878985805D0E94700A74C28BA13E
:1024C0009CA1ADA1BEA1803422E492072FE0A20717
:1024D00020E0B20708F418C18BA19CA1ADA1BEA158
:1024E000803826E9920728E9A20720E0B20708F021
:1024F0000BC189A16AA10E94970C80E10E94CE09BC
:1025000080E10E94CE0980E10E94CE0980E10E9414
:10251000CE0980E10E94CE0980E10E94CE098BA104
:102520009CA1ADA1BEA120E432E44FE050E0BC018B
:10253000CD010E941F1DDA01C9018D8F9E8FAF8FC3
:10254000B8A38D8D805D0E94700A8BA19CA1ADA166
:10255000BEA120E432E44FE050E0BC01CD010E9476
:102560001F1DDC01CB018D8F9E8FAF8FB8A38D8D8A
:102570009E8DAF8DB8A120EA36E841E050E0BC0165
:10258000CD010E941F1DDA01C901898F9A8FAB8F7F
:10259000BC8F898D805D0E94700A8D8D9E8DAF8D60
:1025A000B8A120EA36E841E050E0BC01CD010E942C
:1025B0001F1DDC01CB01898F9A8FAB8FBC8F898D5A
:1025C0009A8DAB8DBC8D20E137E240E050E0BC013C
:1025D000CD010E941F1DDA01C9018D8B9E8BAF8B2F
:1025E000B88F8D89805D0E94700A898D9A8DAB8D20
:1025F000BC8D20E137E240E050E0BC01CD010E94FB
:102600001F1DDC01CB018D8B9E8BAF8BB88F8D890D
:102610009E89AF89B88D28EE33E040E050E0BC01E0
:10262000CD010E941F1DDA01C901898B9A8BAB8BEA
:10263000BC8B8989805D0E94700A8D899E89AF89D3
:10264000B88D28EE33E040E050E0BC01CD010E949F
:102650001F1DDC01CB01898B9A8BAB8BBC8B8989CD
:102660009A89AB89BC8924E630E040E050E0BC01A7
:10267000CD010E941F1DDA01C9018D879E87AF879A
:10268000B88B8D85805D0E94700A89899A89AB8993
:10269000BC8924E630E040E050E0BC01CD010E945E
:1026A0001F1DDC01CB018D879E87AF87B88B8D8581
:1026B0009E85AF85B8892AE030E040E050E0BC015B
:1026C000CD010E941F1DDA01C90189879A87AB8756
:1026D000BC878985805D0E94700A8D859E85AF8547
:1026E000B8892AE030E040E050E0BC01CD010E9412
:1026F0001F1DDC01CB0189879A87AB87BC87898541
:10270000805D0E94700A4FC18BA19CA1ADA1BEA1AA
:10271000803826E9920728E9A20720E0B20708F4EA
:1027200042C18BA19CA1ADA1BEA1803021EE920738
:1027300025EFA20725E0B20708F035C189A16AA1FB
:102740000E94970C80E10E94CE0980E10E94CE0990
:1027500080E10E94CE0980E10E94CE0980E10E94C2
:10276000CE0980E10E94CE0980E10E94CE098BA1B2
:102770009CA1ADA1BEA120E836E948E950E0BC012A
:10278000CD010E941F1DDA01C9018D8F9E8FAF8F71
:10279000B8A38D8D805D0E94700A8BA19CA1ADA114
:1027A000BEA120E836E948E950E0BC01CD010E9415
:1027B0001F1DDC01CB018D8F9E8FAF8FB8A38D8D38
:1027C0009E8DAF8DB8A120E432E44FE050E0BC0113
:1027D000CD010E941F1DDA01C901898F9A8FAB8F2D
:1027E000BC8F898D805D0E94700A8D8D9E8DAF8D0E
:1027F000B8A120E432E44FE050E0BC01CD010E94DA
:102800001F1DDC01CB01898F9A8FAB8FBC8F8D8907
:102810009E89AF89B88D20EA36E841E050E0BC01DE
:10282000CD010E941F1DDA01C9018D8B9E8BAF8BDC
:10283000B88F8D89805D0E94700A898D9A8DAB8DCD
:10284000BC8D20EA36E841E050E0BC01CD010E9499
:102850001F1DDC01CB018D8B9E8BAF8BB88F8D89BB
:102860009E89AF89B88D20E137E240E050E0BC019D
:10287000CD010E941F1DDA01C901898B9A8BAB8B98
:10288000BC8B8989805D0E94700A8D899E89AF8981
:10289000B88D20E137E240E050E0BC01CD010E945C
:1028A0001F1DDC01CB01898B9A8BAB8BBC8B89897B
:1028B0009A89AB89BC8928EE33E040E050E0BC0146
:1028C000CD010E941F1DDA01C9018D879E87AF8748
:1028D000B88B8D85805D0E94700A89899A89AB8941
:1028E000BC8928EE33E040E050E0BC01CD010E94FD
:1028F0001F1DDC01CB018D879E87AF87B88B8D852F
:102900009E85AF85B88924E630E040E050E0BC0108
:10291000CD010E941F1DDA01C90189879A87AB8703
:10292000BC878985805D0E94700A8D859E85AF85F4
:10293000B88924E630E040E050E0BC01CD010E94BF
:102940001F1DDC01CB0189879A87AB87BC878985EE
:102950009A85AB85BC852AE030E040E050E0BC01C0
:10296000CD010E941F1DDA01C9018D839E83AF83B3
:10297000B8878D81805D0E94700A89859A85AB85B4
:10298000BC852AE030E040E050E0BC01CD010E946F
:102990001F1DDC01CB018D839E83AF83B8878D81A2
:1029A000805D0E94700AA6960FB6F894DEBF0FBE37
:1029B000CDBFCF91DF910895DF93CF93CDB7DEB731
:1029C000A6970FB6F894DEBF0FBECDBF89A36AA34A
:1029D0002BA33CA34DA35EA38BA19CA1ADA1BEA143
:1029E0008A309105A105B10548F489A16AA10E9428
:1029F000970C8BA1805D0E94700A49C58BA19CA198
:102A0000ADA1BEA18A309105A105B105D0F18BA180
:102A10009CA1ADA1BEA184369105A105B10588F5A3
:102A200089A16AA10E94970C8BA19CA1ADA1BEA116
:102A30002AE030E040E050E0BC01CD010E941F1DC3
:102A4000DA01C9018D8F9E8FAF8FB8A38D8D805D08
:102A50000E94700A8BA19CA1ADA1BEA12AE030E02A
:102A600040E050E0BC01CD010E941F1DDC01CB0104
:102A7000898F9A8FAB8FBC8F898D805D0E94700A81
:102A800006C58BA19CA1ADA1BEA184369105A1056F
:102A9000B10508F466C08BA19CA1ADA1BEA1883E82
:102AA00023E0920720E0A20720E0B20708F059C017
:102AB00089A16AA10E94970C8BA19CA1ADA1BEA186
:102AC00024E630E040E050E0BC01CD010E941F1D33
:102AD000DA01C9018D8F9E8FAF8FB8A38D8D805D78
:102AE0000E94700A8BA19CA1ADA1BEA124E630E09A
:102AF00040E050E0BC01CD010E941F1DDC01CB0174
:102B00008D8F9E8FAF8FB8A38D8D9E8DAF8DB8A109
:102B10002AE030E040E050E0BC01CD010E941F1DE2
:102B2000DA01C901898F9A8FAB8FBC8F898D805D47
:102B30000E94700A8D8D9E8DAF8DB8A12AE030E085
:102B400040E050E0BC01CD010E941F1DDC01CB0123
:102B5000898F9A8FAB8FBC8F898D805D0E94700AA0
:102B600096C48BA19CA1ADA1BEA1883E23E0920793
:102B700020E0A20720E0B20708F48EC08BA19CA140
:102B8000ADA1BEA1803127E2920720E0A20720E09C
:102B9000B20708F081C089A16AA10E94970C8BA19D
:102BA0009CA1ADA1BEA128EE33E040E050E0BC0105
:102BB000CD010E941F1DDA01C9018D8F9E8FAF8F3D
:102BC000B8A38D8D805D0E94700A8BA19CA1ADA1E0
:102BD000BEA128EE33E040E050E0BC01CD010E94F0
:102BE0001F1DDC01CB01898F9A8FAB8FBC8F898D24
:102BF0009A8DAB8DBC8D24E630E040E050E0BC0106
:102C0000CD010E941F1DDA01C9018D8B9E8BAF8BF8
:102C1000B88F8D89805D0E94700A898D9A8DAB8DE9
:102C2000BC8D24E630E040E050E0BC01CD010E94C4
:102C30001F1DDC01CB01898B9A8BAB8BBC8B8989E7
:102C40009A89AB89BC892AE030E040E050E0BC01C1
:102C5000CD010E941F1DDA01C9018D879E87AF87B4
:102C6000B88B8D85805D0E94700A89899A89AB89AD
:102C7000BC892AE030E040E050E0BC01CD010E9478
:102C80001F1DDC01CB0189879A87AB87BC878985AB
:102C9000805D0E94700AFBC38BA19CA1ADA1BEA167
:102CA000803127E2920720E0A20720E0B20708F473
:102CB000B6C08BA19CA1ADA1BEA1803A26E8920727
:102CC00021E0A20720E0B20708F0A9C089A16AA10B
:102CD0000E94970C8BA19CA1ADA1BEA120E137E27F
:102CE00040E050E0BC01CD010E941F1DDA01C90186
:102CF0008D8F9E8FAF8FB8A38D8D805D0E94700ADF
:102D00008BA19CA1ADA1BEA120E137E240E050E043
:102D1000BC01CD010E941F1DDC01CB018D8F9E8F58
:102D2000AF8FB8A38D8D9E8DAF8DB8A128EE33E007
:102D300040E050E0BC01CD010E941F1DDA01C90135
:102D4000898F9A8FAB8FBC8F898D805D0E94700AAE
:102D50008D8D9E8DAF8DB8A128EE33E040E050E020
:102D6000BC01CD010E941F1DDC01CB01898F9A8F10
:102D7000AB8FBC8F898D9A8DAB8DBC8D24E630E0F6
:102D800040E050E0BC01CD010E941F1DDA01C901E5
:102D90008D8B9E8BAF8BB88F8D89805D0E94700A62
:102DA000898D9A8DAB8DBC8D24E630E040E050E0FB
:102DB000BC01CD010E941F1DDC01CB01898B9A8BC8
:102DC000AB8BBC8B89899A89AB89BC892AE030E0BE
:102DD00040E050E0BC01CD010E941F1DDA01C90195
:102DE0008D879E87AF87B88B8D85805D0E94700A26
:102DF00089899A89AB89BC892AE030E040E050E0BB
:102E0000BC01CD010E941F1DDC01CB0189879A877F
:102E1000AB87BC878985805D0E94700A38C38BA10F
:102E20009CA1ADA1BEA1803A26E8920721E0A207AD
:102E300020E0B20708F4DEC08BA19CA1ADA1BEA129
:102E4000803422E492072FE0A20720E0B20708F0C6
:102E5000D1C089A16AA10E94970C8BA19CA1ADA1B0
:102E6000BEA120EA36E841E050E0BC01CD010E945D
:102E70001F1DDA01C9018D8F9E8FAF8FB8A38D8D75
:102E8000805D0E94700A8BA19CA1ADA1BEA120EA29
:102E900036E841E050E0BC01CD010E941F1DDC017D
:102EA000CB018D8F9E8FAF8FB8A38D8D9E8DAF8DF3
:102EB000B8A120E137E240E050E0BC01CD010E9422
:102EC0001F1DDA01C901898F9A8FAB8FBC8F898D45
:102ED000805D0E94700A8D8D9E8DAF8DB8A120E11E
:102EE00037E240E050E0BC01CD010E941F1DDC0133
:102EF000CB01898F9A8FAB8FBC8F898D9A8DAB8DCB
:102F0000BC8D28EE33E040E050E0BC01CD010E94D2
:102F10001F1DDA01C9018D8B9E8BAF8BB88F8D89F8
:102F2000805D0E94700A898D9A8DAB8DBC8D28EED4
:102F300033E040E050E0BC01CD010E941F1DDC01E8
:102F4000CB018D8B9E8BAF8BB88F8D899E89AF897E
:102F5000B88D24E630E040E050E0BC01CD010E9495
:102F60001F1DDA01C901898B9A8BAB8BBC8B8989B8
:102F7000805D0E94700A8D899E89AF89B88D24E694
:102F800030E040E050E0BC01CD010E941F1DDC019B
:102F9000CB01898B9A8BAB8BBC8B89899A89AB8946
:102FA000BC892AE030E040E050E0BC01CD010E9445
:102FB0001F1DDA01C9018D879E87AF87B88B8D856C
:102FC000805D0E94700A89899A89AB89BC892AE050
:102FD00030E040E050E0BC01CD010E941F1DDC014B
:102FE000CB0189879A87AB87BC878985805D0E94E2
:102FF000700A4DC28BA19CA1ADA1BEA1803422E478
:1030000092072FE0A20720E0B20708F406C18BA1C7
:103010009CA1ADA1BEA1803826E9920728E9A207AC
:1030200020E0B20708F0F9C089A16AA10E94970CBC
:103030008BA19CA1ADA1BEA120E432E44FE050E001
:10304000BC01CD010E941F1DDA01C9018D8F9E8F29
:10305000AF8FB8A38D8D805D0E94700A8BA19CA15B
:10306000ADA1BEA120E432E44FE050E0BC01CD01AF
:103070000E941F1DDC01CB018D8F9E8FAF8FB8A3E7
:103080008D8D9E8DAF8DB8A120EA36E841E050E0ED
:10309000BC01CD010E941F1DDA01C901898F9A8FE1
:1030A000AB8FBC8F898D805D0E94700A8D8D9E8D47
:1030B000AF8DB8A120EA36E841E050E0BC01CD0177
:1030C0000E941F1DDC01CB01898F9A8FAB8FBC8FB3
:1030D000898D9A8DAB8DBC8D20E137E240E050E0C8
:1030E000BC01CD010E941F1DDA01C9018D8B9E8B91
:1030F000AF8BB88F8D89805D0E94700A898D9A8D03
:10310000AB8DBC8D20E137E240E050E0BC01CD0149
:103110000E941F1DDC01CB018D8B9E8BAF8BB88F66
:103120008D899E89AF89B88D28EE33E040E050E06C
:10313000BC01CD010E941F1DDA01C901898B9A8B48
:10314000AB8BBC8B8989805D0E94700A8D899E89BA
:10315000AF89B88D28EE33E040E050E0BC01CD01EE
:103160000E941F1DDC01CB01898B9A8BAB8BBC8B22
:1031700089899A89AB89BC8924E630E040E050E037
:10318000BC01CD010E941F1DDA01C9018D879E87F8
:10319000AF87B88B8D85805D0E94700A89899A8976
:1031A000AB89BC8924E630E040E050E0BC01CD01B1
:1031B0000E941F1DDC01CB018D879E87AF87B88BD6
:1031C0008D859E85AF85B8892AE030E040E050E0EB
:1031D000BC01CD010E941F1DDA01C90189879A87B0
:1031E000AB87BC878985805D0E94700A8D859E852E
:1031F000AF85B8892AE030E040E050E0BC01CD0165
:103200000E941F1DDC01CB0189879A87AB87BC8791
:103210008985805D0E94700A3AC18BA19CA1ADA1F5
:10322000BEA1803826E9920728E9A20720E0B2076C
:1032300008F42DC18BA19CA1ADA1BEA1803021EECF
:10324000920725EFA20725E0B20708F020C189A167
:103250006AA10E94970C8BA19CA1ADA1BEA120E800
:1032600036E948E950E0BC01CD010E941F1DDA019A
:10327000C9018D8F9E8FAF8FB8A38D8D805D0E9409
:10328000700A8BA19CA1ADA1BEA120E836E948E956
:1032900050E0BC01CD010E941F1DDC01CB018D8FD0
:1032A0009E8FAF8FB8A38D8D9E8DAF8DB8A120E47A
:1032B00032E44FE050E0BC01CD010E941F1DDA0155
:1032C000C901898F9A8FAB8FBC8F898D805D0E94D9
:1032D000700A8D8D9E8DAF8DB8A120E432E44FE051
:1032E00050E0BC01CD010E941F1DDC01CB01898F84
:1032F0009A8FAB8FBC8F8D899E89AF89B88D20EA5C
:1033000036E841E050E0BC01CD010E941F1DDA010A
:10331000C9018D8B9E8BAF8BB88F8D89805D0E948C
:10332000700A898D9A8DAB8DBC8D20EA36E841E01C
:1033300050E0BC01CD010E941F1DDC01CB018D8B33
:103340009E8BAF8BB88F8D899E89AF89B88D20E118
:1033500037E240E050E0BC01CD010E941F1DDA01C0
:10336000C901898B9A8BAB8BBC8B8989805D0E944C
:10337000700A8D899E89AF89B88D20E137E240E0DF
:1033800050E0BC01CD010E941F1DDC01CB01898BE7
:103390009A8BAB8BBC8B89899A89AB89BC8928EEC7
:1033A00033E040E050E0BC01CD010E941F1DDA0176
:1033B000C9018D879E87AF87B88B8D85805D0E9400
:1033C000700A89899A89AB89BC8928EE33E040E08C
:1033D00050E0BC01CD010E941F1DDC01CB018D8797
:1033E0009E87AF87B88B8D859E85AF85B88924E68B
:1033F00030E040E050E0BC01CD010E941F1DDA0129
:10340000C90189879A87AB87BC878985805D0E94BF
:10341000700A8D859E85AF85B88924E630E040E04E
:1034200050E0BC01CD010E941F1DDC01CB0189874A
:103430009A87AB87BC8789859A85AB85BC852AE04E
:1034400030E040E050E0BC01CD010E941F1DDA01D8
:10345000C9018D839E83AF83B8878D81805D0E9473
:10346000700A89859A85AB85BC852AE030E040E00A
:1034700050E0BC01CD010E941F1DDC01CB018D83FA
:103480009E83AF83B8878D81805D0E94700AA69667
:103490000FB6F894DEBF0FBECDBFCF91DF91089578
:1034A0001F93DF93CF93CDB7DEB72E970FB6F89467
:1034B000DEBF0FBECDBF89876A872B873C874D87CC
:1034C0005E876B857C858D859E850E944900DC0129
:1034D000CB0189839A83AB83BC8369817A818B8199
:1034E0009C810E94FD039B01AC016B857C858D85D1
:1034F0009E850E94C101DC01CB018D839E83AF8339
:10350000B88729813A814B815C8189856A850E94CF
:10351000DC146D817E818F81988520E030E040E869
:103520005FE30E9479038823ACF56D817E818F81F2
:1035300098852DEC3CEC4CEC5DE30E94490388231C
:103540004CF16D817E818F81988520E030E040E2F2
:1035500051E40E941F02DC01CB018D839E83AF8367
:10356000B8878A85982F9F5F8985692F0E94970C5D
:103570008EE20E94700A8A85182F1E5F6D817E81FF
:103580008F8198850E9449009B01AC018985612F3C
:103590000E94DC146D817E818F8198852DEC3CEC3E
:1035A0004CEC5DE30E9479038823B4F56D817E8144
:1035B0008F8198852AE037ED43E25CE30E9449035E
:1035C000882354F16D817E818F81988520E030E0E1
:1035D00048EC52E40E941F02DC01CB018D839E83E4
:1035E000AF83B8878A85982F9F5F8985692F0E944E
:1035F000970C80E690E00E94FF0D8A85182F1D5FD2
:103600006D817E818F8198850E9449009B01AC016C
:103610008985612F0E94DC146D817E818F81988560
:103620002AE037ED43E25CE30E9479038823B4F596
:103630006D817E818F8198852FE632E143E85AE3E0
:103640000E944903882354F16D817E818F81988582
:1036500020E030E04AE754E40E941F02DC01CB0185
:103660008D839E83AF83B8878A85982F9F5F8985D6
:10367000692F0E94970C83E690E00E94FF0D8A85D7
:10368000182F1C5F6D817E818F8198850E94490073
:103690009B01AC018985612F0E94DC146D817E81C4
:1036A0008F8198852FE632E143E85AE30E9479033F
:1036B0008823B4F56D817E818F81988527E137EB72
:1036C00041ED58E30E944903882354F16D817E81C6
:1036D0008F81988520E030E543EC57E40E941F027B
:1036E000DC01CB018D839E83AF83B8878A85982FB9
:1036F0009F5F8985692F0E94970C87E690E00E9462
:10370000FF0D8A85182F1B5F6D817E818F819885C3
:103710000E9449009B01AC018985612F0E94DC1445
:103720006D817E818F81988527E137EB41ED58E3EC
:103730000E9479038823B4F56D817E818F819885FD
:103740002CEA35EC47E257E30E944903882354F101
:103750006D817E818F81988520E034E244E759E4D1
:103760000E941F02DC01CB018D839E83AF83B8874B
:103770008A85982F9F5F8985692F0E94970C8CE618
:1037800090E00E94FF0D8A85182F1A5F6D817E815F
:103790008F8198850E9449009B01AC018985612F2A
:1037A0000E94DC146D817E818F8198852CEA35EC36
:1037B00047E257E30E9479038823B4F56D817E8147
:1037C0008F81988525E93FEB46ED53E30E9449033D
:1037D000882354F16D817E818F81988520E836E9B8
:1037E00048E15BE40E941F02DC01CB018D839E83D4
:1037F000AF83B8878A85982F9F5F8985692F0E943C
:10380000970C82E790E00E94FF0D8A85182F195FC0
:103810006D817E818F8198850E9449009B01AC015A
:103820008985612F0E94DC146D817E818F8198854E
:1038300025E93FEB46ED53E30E9479038823B4F575
:103840006D817E818F81988527E73CEC4BE252E3C6
:103850000E944903882354F16D817E818F81988570
:1038600020E23CEB4EEB5CE40E941F02DC01CB014A
:103870008D839E83AF83B8878A85982F9F5F8985C4
:10388000692F0E94970C89E790E00E94FF0D8A85BE
:10389000182F185F6D817E818F8198850E94490065
:1038A0009B01AC018985612F0E94DC142E960FB616
:1038B000F894DEBF0FBECDBFCF91DF911F91089569
:1038C000DF93CF93CDB7DEB72E970FB6F894DEBF58
:1038D0000FBECDBF0E946B060E94120B80E00E94BB
:1038E0008E069093910180939001209190013091E8
:1038F000910184EF91E0AC01249FC001259F900DC0
:10390000349F900D11242FEF33E0B9010E940B1D5D
:10391000CB0190938F0180938E0180918E019091C5
:103920008F019C0140E050E081E065E00E94140FAF
:1039300080E090E0AAE7B4E48B879C87AD87BE87E0
:103940006B857C858D859E8520E030E04AEF54E4D0
:103950000E941F02DC01CB018F839887A987BA8759
:103960006F81788589859A8520E030E040E85FE3C3
:103970000E94790388232CF481E090E09E838D835C
:103980003FC06F81788589859A8520E03FEF4FE7BA
:1039900057E40E94190318164CF56B857C858D85BC
:1039A0009E8520E030E040E251E40E941F02DC01ED
:1039B000CB01BC01CD010E944900DC01CB019E83FB
:1039C0008D830FC088EC90E09C838B838B819C81DE
:1039D0000197F1F79C838B838D819E8101979E8354
:1039E0008D838D819E81009769F778CF6F8178856F
:1039F00089859A850E944900DC01CB019E838D83D5
:103A00008D819E819A83898389819A810197F1F7BB
:103A10009A83898363CFAA1BBB1B51E107C0AA1FEE
:103A2000BB1FA617B70710F0A61BB70B881F991F5F
:103A30005A95A9F780959095BC01CD010895A1E212
:103A40001A2EAA1BBB1BFD010DC0AA1FBB1FEE1F18
:103A5000FF1FA217B307E407F50720F0A21BB30B63
:103A6000E40BF50B661F771F881F991F1A9469F7DF
:103A700060957095809590959B01AC01BD01CF013B
:103A800008952F923F924F925F926F927F928F9202
:103A90009F92AF92BF92CF92DF92EF92FF920F93DD
:103AA0001F93CF93DF93CDB7DEB7CA1BDB0B0FB6E7
:103AB000F894DEBF0FBECDBF09942A8839884888A4
:103AC0005F846E847D848C849B84AA84B984C8843A
:103AD000DF80EE80FD800C811B81AA81B981CE0F31
:103AE000D11D0FB6F894DEBF0FBECDBFED01089516
:043AF000F894FFCF78
:103AF4002E30002E3030002E303030002E3030305A
:103B040030002E3030303030002E30303030303015
:103B14000000000000000000000001020203030393
:103B2400030404040404040404050505050505054B
:103B3400050505050505050505060606060606062A
:103B44000606060606060606060606060606060611
:103B540006060606060606060607070707070707FA
:103B640007070707070707070707070707070707E1
:103B740007070707070707070707070707070707D1
:103B840007070707070707070707070707070707C1
:103B940007070707070707070708080808080808AA
:103BA4000808080808080808080808080808080891
:103BB4000808080808080808080808080808080881
:103BC4000808080808080808080808080808080871
:103BD4000808080808080808080808080808080861
:103BE4000808080808080808080808080808080851
:103BF4000808080808080808080808080808080841
:103C04000808080808080808080808080808080830
:0E3C14000808080808080808089A999940004E
:00000001FF
